{
  "_format": "hh-sol-artifact-1",
  "contractName": "LinkedInPortal",
  "sourceName": "contracts/LinkedInPortal.sol",
  "abi": [
    {
      "inputs": [],
      "stateMutability": "payable",
      "type": "constructor"
    },
    {
      "anonymous": false,
      "inputs": [
        {
          "indexed": true,
          "internalType": "address",
          "name": "from",
          "type": "address"
        },
        {
          "indexed": false,
          "internalType": "uint256",
          "name": "timestamp",
          "type": "uint256"
        },
        {
          "indexed": false,
          "internalType": "string",
          "name": "name",
          "type": "string"
        },
        {
          "indexed": false,
          "internalType": "string",
          "name": "url",
          "type": "string"
        }
      ],
      "name": "NewProfile",
      "type": "event"
    },
    {
      "inputs": [],
      "name": "getAllProfiles",
      "outputs": [
        {
          "components": [
            {
              "internalType": "address",
              "name": "poster",
              "type": "address"
            },
            {
              "internalType": "string",
              "name": "name",
              "type": "string"
            },
            {
              "internalType": "string",
              "name": "url",
              "type": "string"
            },
            {
              "internalType": "uint256",
              "name": "timestamp",
              "type": "uint256"
            }
          ],
          "internalType": "struct LinkedInPortal.Profile[]",
          "name": "",
          "type": "tuple[]"
        }
      ],
      "stateMutability": "view",
      "type": "function"
    },
    {
      "inputs": [],
      "name": "getTotalProfiles",
      "outputs": [
        {
          "internalType": "uint256",
          "name": "",
          "type": "uint256"
        }
      ],
      "stateMutability": "view",
      "type": "function"
    },
    {
      "inputs": [
        {
          "internalType": "address",
          "name": "",
          "type": "address"
        }
      ],
      "name": "lastPostedAt",
      "outputs": [
        {
          "internalType": "uint256",
          "name": "",
          "type": "uint256"
        }
      ],
      "stateMutability": "view",
      "type": "function"
    },
    {
      "inputs": [
        {
          "internalType": "string",
          "name": "_name",
          "type": "string"
        },
        {
          "internalType": "string",
          "name": "_url",
          "type": "string"
        }
      ],
      "name": "postProfile",
      "outputs": [],
      "stateMutability": "nonpayable",
      "type": "function"
    }
  ],
  "bytecode": "0x60806040526200004f6040518060400160405280601e81526020017f4c696e6b6564496e20506f7274616c20536d61727420436f6e747261637400008152506200007760201b620007401760201c565b606444426200005f9190620001c4565b6200006b919062000261565b60018190555062000308565b62000117816040516024016200008e919062000184565b6040516020818303038152906040527f41304fac000000000000000000000000000000000000000000000000000000007bffffffffffffffffffffffffffffffffffffffffffffffffffffffff19166020820180517bffffffffffffffffffffffffffffffffffffffffffffffffffffffff83818316178352505050506200011a60201b60201c565b50565b60008151905060006a636f6e736f6c652e6c6f679050602083016000808483855afa5050505050565b60006200015082620001a8565b6200015c8185620001b3565b93506200016e8185602086016200022b565b6200017981620002f7565b840191505092915050565b60006020820190508181036000830152620001a0818462000143565b905092915050565b600081519050919050565b600082825260208201905092915050565b6000620001d18262000221565b9150620001de8362000221565b9250827fffffffffffffffffffffffffffffffffffffffffffffffffffffffffffffffff0382111562000216576200021562000299565b5b828201905092915050565b6000819050919050565b60005b838110156200024b5780820151818401526020810190506200022e565b838111156200025b576000848401525b50505050565b60006200026e8262000221565b91506200027b8362000221565b9250826200028e576200028d620002c8565b5b828206905092915050565b7f4e487b7100000000000000000000000000000000000000000000000000000000600052601160045260246000fd5b7f4e487b7100000000000000000000000000000000000000000000000000000000600052601260045260246000fd5b6000601f19601f8301169050919050565b61133680620003186000396000f3fe608060405234801561001057600080fd5b506004361061004c5760003560e01c80630b1fe7841461005157806351493c4f1461006f578063bab17ce91461009f578063fc094037146100bd575b600080fd5b6100596100d9565b6040516100669190610e6a565b60405180910390f35b61008960048036038101906100849190610af9565b6102bc565b6040516100969190610fb3565b60405180910390f35b6100a76102d4565b6040516100b49190610fb3565b60405180910390f35b6100d760048036038101906100d29190610b22565b61031f565b005b60606002805480602002602001604051908101604052809291908181526020016000905b828210156102b357838290600052602060002090600402016040518060800160405290816000820160009054906101000a900473ffffffffffffffffffffffffffffffffffffffff1673ffffffffffffffffffffffffffffffffffffffff1673ffffffffffffffffffffffffffffffffffffffff168152602001600182018054610186906111b9565b80601f01602080910402602001604051908101604052809291908181526020018280546101b2906111b9565b80156101ff5780601f106101d4576101008083540402835291602001916101ff565b820191906000526020600020905b8154815290600101906020018083116101e257829003601f168201915b50505050508152602001600282018054610218906111b9565b80601f0160208091040260200160405190810160405280929190818152602001828054610244906111b9565b80156102915780601f1061026657610100808354040283529160200191610291565b820191906000526020600020905b81548152906001019060200180831161027457829003601f168201915b50505050508152602001600382015481525050815260200190600101906100fd565b50505050905090565b60036020528060005260406000206000915090505481565b60006103176040518060400160405280601a81526020017f5765206861766520256420746f74616c2050726f66696c6573210000000000008152506000546107d9565b600054905090565b42601e600360003373ffffffffffffffffffffffffffffffffffffffff1673ffffffffffffffffffffffffffffffffffffffff1681526020019081526020016000205461036c91906110e5565b106103ac576040517f08c379a00000000000000000000000000000000000000000000000000000000081526004016103a390610f93565b60405180910390fd5b42600360003373ffffffffffffffffffffffffffffffffffffffff1673ffffffffffffffffffffffffffffffffffffffff16815260200190815260200160002081905550600160008082825461040291906110e5565b925050819055506104496040518060400160405280600a81526020017f257320706f737465643a000000000000000000000000000000000000000000008152503384610875565b600260405180608001604052803373ffffffffffffffffffffffffffffffffffffffff16815260200184815260200183815260200142815250908060018154018082558091505060019003906000526020600020906004020160009091909190915060008201518160000160006101000a81548173ffffffffffffffffffffffffffffffffffffffff021916908373ffffffffffffffffffffffffffffffffffffffff160217905550602082015181600101908051906020019061050e9291906109d9565b50604082015181600201908051906020019061052b9291906109d9565b506060820151816003015550506064600154424461054991906110e5565b61055391906110e5565b61055d91906111eb565b6001819055506105a46040518060400160405280601681526020017f52616e646f6d20232067656e6572617465643a202564000000000000000000008152506001546107d9565b6002600154116106ea576105ed6040518060400160405280600781526020017f257320776f6e210000000000000000000000000000000000000000000000000081525033610914565b6000652d79883d200090504781111561063b576040517f08c379a000000000000000000000000000000000000000000000000000000000815260040161063290610f53565b60405180910390fd5b60003373ffffffffffffffffffffffffffffffffffffffff168260405161066190610e55565b60006040518083038185875af1925050503d806000811461069e576040519150601f19603f3d011682016040523d82523d6000602084013e6106a3565b606091505b50509050806106e7576040517f08c379a00000000000000000000000000000000000000000000000000000000081526004016106de90610f73565b60405180910390fd5b50505b3373ffffffffffffffffffffffffffffffffffffffff167f1a6830b2116032804bf51ae00c83b55662c9a92bb25d701567043f4dc687b84742848460405161073493929190610fce565b60405180910390a25050565b6107d6816040516024016107549190610e8c565b6040516020818303038152906040527f41304fac000000000000000000000000000000000000000000000000000000007bffffffffffffffffffffffffffffffffffffffffffffffffffffffff19166020820180517bffffffffffffffffffffffffffffffffffffffffffffffffffffffff83818316178352505050506109b0565b50565b61087182826040516024016107ef929190610f23565b6040516020818303038152906040527f9710a9d0000000000000000000000000000000000000000000000000000000007bffffffffffffffffffffffffffffffffffffffffffffffffffffffff19166020820180517bffffffffffffffffffffffffffffffffffffffffffffffffffffffff83818316178352505050506109b0565b5050565b61090f83838360405160240161088d93929190610ede565b6040516020818303038152906040527fe0e9ad4f000000000000000000000000000000000000000000000000000000007bffffffffffffffffffffffffffffffffffffffffffffffffffffffff19166020820180517bffffffffffffffffffffffffffffffffffffffffffffffffffffffff83818316178352505050506109b0565b505050565b6109ac828260405160240161092a929190610eae565b6040516020818303038152906040527f319af333000000000000000000000000000000000000000000000000000000007bffffffffffffffffffffffffffffffffffffffffffffffffffffffff19166020820180517bffffffffffffffffffffffffffffffffffffffffffffffffffffffff83818316178352505050506109b0565b5050565b60008151905060006a636f6e736f6c652e6c6f679050602083016000808483855afa5050505050565b8280546109e5906111b9565b90600052602060002090601f016020900481019282610a075760008555610a4e565b82601f10610a2057805160ff1916838001178555610a4e565b82800160010185558215610a4e579182015b82811115610a4d578251825591602001919060010190610a32565b5b509050610a5b9190610a5f565b5090565b5b80821115610a78576000816000905550600101610a60565b5090565b6000610a8f610a8a84611044565b611013565b905082815260208101848484011115610aa757600080fd5b610ab2848285611177565b509392505050565b600081359050610ac9816112e9565b92915050565b600082601f830112610ae057600080fd5b8135610af0848260208601610a7c565b91505092915050565b600060208284031215610b0b57600080fd5b6000610b1984828501610aba565b91505092915050565b60008060408385031215610b3557600080fd5b600083013567ffffffffffffffff811115610b4f57600080fd5b610b5b85828601610acf565b925050602083013567ffffffffffffffff811115610b7857600080fd5b610b8485828601610acf565b9150509250929050565b6000610b9a8383610dcd565b905092915050565b610bab8161113b565b82525050565b610bba8161113b565b82525050565b6000610bcb82611084565b610bd581856110a7565b935083602082028501610be785611074565b8060005b85811015610c235784840389528151610c048582610b8e565b9450610c0f8361109a565b925060208a01995050600181019050610beb565b50829750879550505050505092915050565b6000610c408261108f565b610c4a81856110c3565b9350610c5a818560208601611186565b610c63816112d8565b840191505092915050565b6000610c798261108f565b610c8381856110d4565b9350610c93818560208601611186565b610c9c816112d8565b840191505092915050565b6000610cb46034836110d4565b91507f547279696e6720746f207769746864726177206d6f7265206d6f6e657920746860008301527f616e2074686520636f6e7472616374206861732e0000000000000000000000006020830152604082019050919050565b6000610d1a6027836110d4565b91507f4661696c656420746f207769746864726177206d6f6e65792066726f6d20636f60008301527f6e74726163742e000000000000000000000000000000000000000000000000006020830152604082019050919050565b6000610d806008836110d4565b91507f57616974203330730000000000000000000000000000000000000000000000006000830152602082019050919050565b6000610dc06000836110b8565b9150600082019050919050565b6000608083016000830151610de56000860182610ba2565b5060208301518482036020860152610dfd8282610c35565b91505060408301518482036040860152610e178282610c35565b9150506060830151610e2c6060860182610e37565b508091505092915050565b610e408161116d565b82525050565b610e4f8161116d565b82525050565b6000610e6082610db3565b9150819050919050565b60006020820190508181036000830152610e848184610bc0565b905092915050565b60006020820190508181036000830152610ea68184610c6e565b905092915050565b60006040820190508181036000830152610ec88185610c6e565b9050610ed76020830184610bb1565b9392505050565b60006060820190508181036000830152610ef88186610c6e565b9050610f076020830185610bb1565b8181036040830152610f198184610c6e565b9050949350505050565b60006040820190508181036000830152610f3d8185610c6e565b9050610f4c6020830184610e46565b9392505050565b60006020820190508181036000830152610f6c81610ca7565b9050919050565b60006020820190508181036000830152610f8c81610d0d565b9050919050565b60006020820190508181036000830152610fac81610d73565b9050919050565b6000602082019050610fc86000830184610e46565b92915050565b6000606082019050610fe36000830186610e46565b8181036020830152610ff58185610c6e565b905081810360408301526110098184610c6e565b9050949350505050565b6000604051905081810181811067ffffffffffffffff8211171561103a576110396112a9565b5b8060405250919050565b600067ffffffffffffffff82111561105f5761105e6112a9565b5b601f19601f8301169050602081019050919050565b6000819050602082019050919050565b600081519050919050565b600081519050919050565b6000602082019050919050565b600082825260208201905092915050565b600081905092915050565b600082825260208201905092915050565b600082825260208201905092915050565b60006110f08261116d565b91506110fb8361116d565b9250827fffffffffffffffffffffffffffffffffffffffffffffffffffffffffffffffff038211156111305761112f61121c565b5b828201905092915050565b60006111468261114d565b9050919050565b600073ffffffffffffffffffffffffffffffffffffffff82169050919050565b6000819050919050565b82818337600083830152505050565b60005b838110156111a4578082015181840152602081019050611189565b838111156111b3576000848401525b50505050565b600060028204905060018216806111d157607f821691505b602082108114156111e5576111e461127a565b5b50919050565b60006111f68261116d565b91506112018361116d565b9250826112115761121061124b565b5b828206905092915050565b7f4e487b7100000000000000000000000000000000000000000000000000000000600052601160045260246000fd5b7f4e487b7100000000000000000000000000000000000000000000000000000000600052601260045260246000fd5b7f4e487b7100000000000000000000000000000000000000000000000000000000600052602260045260246000fd5b7f4e487b7100000000000000000000000000000000000000000000000000000000600052604160045260246000fd5b6000601f19601f8301169050919050565b6112f28161113b565b81146112fd57600080fd5b5056fea26469706673582212202f347a94fef33458bfa90f4b4d09997e26ad0580d4cdd3f0ffc7743823846b3264736f6c63430008000033",
  "linkReferences": {},
  "deployedLinkReferences": {}
}